:020000001628C0
:0E0006008312031355088A0054088200080074
:1000140003208A110A128000840AD40A0319D50A1B
:08002400F003031D0A28080087
:10002C0074210630831603139F00091409158601E9
:10003C008701FF3083128700831688018312091C05
:10004C00BD28FF3087002130880000302106031DB9
:10005C00312800302006031D74281730A200003010
:10006C00A30080302306F00080307002031D40286E
:10007C0000302202031C732809184528732880308D
:10008C00F000803023067002031D4E282208033C2A
:10009C00031C5228113088002208F0002308F100BC
:1000AC00F00DF10D70107008243E840000088600DD
:1000BC000530FB000F30FC00F130FD00FD0B642817
:1000CC00FC0B6428FB0B64280130A0000030A1005D
:1000DC000130A202031CA3033728BC2800302106E0
:1000EC00031D7A2801302006031DBC280C30880023
:1000FC000F30A2000030A30080302306F0008030C7
:10010C007002031D8B2800302202031CBA28091828
:10011C009028BA288030F000803023067002031D2E
:10012C0099282208033C031C9D280A3088002208C9
:10013C00F0002308F100F00DF10D70107008243E52
:10014C008400000886000530FB000F30FC00F13005
:10015C00FD00FD0BAF28FC0BAF28FB0BAF280130CB
:10016C00A202031CA3038228A001A10124280918C0
:10017C003929091DFC28033087000330A200003008
:10018C00A30080302306F00080307002031DD028BD
:10019C0000302202031CF1282208F0002308F10091
:1001AC00F00DF10D70107008243E840000088600DC
:1001BC000A3088000530FB000F30FC00F130FD00E8
:1001CC00FD0BE628FC0BE628FB0BE6280130A2020F
:1001DC00031CA303C72887010918FB28091DFB284A
:1001EC0021308800A001A101F228382911308800A3
:1001FC000C3087000330A2000030A30080302306AF
:10020C00F00080307002031D0D2900302202031C07
:10021C002C292208F0002308F100F00DF10D7010CC
:10022C007008243E8400000886000530FB000F3067
:10023C00FC00F130FD00FD0B2129FC0B2129FB0BEF
:10024C0021290130A202031CA303042987010918E8
:10025C003829091938290C3088000130A0000030E9
:0A026C00A1002D29BD2824283A29FD
:1002E80020308400343083120313F0004030D400EF
:0802F8000130D5000A200800C6
:040280000034003412
:04028400003400340E
:1002880000340034013400340234003403340034C0
:1002980004340034053400340634003407340034A0
:1002A8000834003409340034103400341134003474
:1002B8001234003413340034143400341534003448
:1002C8001634003417340034183400341934003428
:1002D80020340034213400342234003423340034F0
:02400E004A2F37
:00000001FF
